:100000000C942A000C9447000C9447000C94470071
:100010000C9447000C9447000C9447000C94470044
:100020000C9447000C9447000C9447000C94470034
:100030000C9447000C9447000C9447000C94470024
:100040000C9447000C9447000C9447000C940B0947
:100050000C94470011241FBECFE5D4E0DEBFCDBF16
:1000600011E0A0E6B0E0E6E9F9E102C005900D92EA
:10007000AC35B107D9F711E0ACE5B1E001C01D9294
:10008000AC36B107E1F70E9457080C94C90C0C94E8
:100090000000A79AD098D898A69885B3806785BBAA
:1000A0000895CF92DF92EF92FF920F931F93CF9319
:1000B000DF937C01EB018A01690180E060E040E6AA
:1000C00050E00E940E0BE114F10459F488E690E030
:1000D0000E94870A80E061E04DE650E00E940E0B2E
:1000E0002EC080E890E00E94870A80E061E00E94D4
:1000F0005C0ACA30D10524F480E090E00E94B60A80
:10010000CE010E94B60A8AE30E94720A0A301105E3
:1001100024F480E090E00E94B60AC8010E94B60A6A
:1001200080E20E94720AC114D10429F484E890E0AC
:100130000E94870A04C089E890E00E94870ADF9144
:10014000CF911F910F91FF90EF90DF90CF90089586
:100150000F931F93CF93DF93EC0180E060E00E9448
:100160005C0A8F81882339F40E946A0A8AEA90E047
:100170000E94870A88C08FEA90E00E94870A85E083
:1001800060E00E945C0A88818A3020F480E090E080
:100190000E94B60A888190E00E94B60A8AE30E9413
:1001A000720A89818A3020F480E090E00E94B60AC9
:1001B000898190E00E94B60A80E20E94720A8A81D8
:1001C000882329F484E890E00E94870A04C089E823
:1001D00090E00E94870A80E061E00E945C0A8C81C6
:1001E0008A3020F480E090E00E94B60A8C8190E092
:1001F0000E94B60A8FE20E94720A8D818A3020F432
:1002000080E090E00E94B60A8D8190E00E94B60ADC
:100210008FE20E94720A8E818A3020F480E090E0A2
:100220000E94B60A8E8190E00E94B60A80E20E9487
:10023000720A8B818430B1F0853038F4823061F0FD
:10024000833068F48130E1F419C0863089F086305B
:1002500060F08730A9F40FC002E910E011C006E990
:1002600010E00EC00AE910E00BC00EE910E008C073
:1002700002EA10E005C006EA10E002C00EE810E055
:10028000C8010E94870ADF91CF911F910F910895B5
:10029000DC0112963C911297E32FF0E011966C91DD
:1002A00011977C9180915E0190915F01AF01407147
:1002B0005070559547955595479555954795559542
:1002C0004795440F242F220F220F420F3F70430FF8
:1002D000242F30E02817390709F04CC020915C0129
:1002E00030915D01862F90E080779070959587958D
:1002F000959587959595879595958795880F982FCE
:10030000990F990F890F6F70860F90E082179307EE
:1003100099F58091540190915501E072F070F59536
:10032000E795F595E795F595E795F595E795F595B5
:10033000E795E817F90711F5872F90E0807790701F
:100340009595879595958795959587959595879595
:10035000880F982F990F990F890F7F70870F81F45D
:1003600081E020915601309157012130310549F04B
:1003700080E0089580E0089580E0089580E0089589
:1003800080E008959E990BC08FEF93ECA9E0815017
:100390009040A040E1F700C0000080E008959D99E2
:1003A0000BC08FEF93ECA9E081509040A040E1F7A3
:1003B00000C0000081E008959C990BC08FEF93EC82
:1003C000A9E081509040A040E1F700C0000082E029
:1003D000089583E008952F923F924F925F926F921B
:1003E0007F928F929F92AF92BF92CF92DF92EF92C5
:1003F000FF920F931F93CF93DF938FE00E942D0BFB
:100400000E946A0A60915E0170915F0140915C01F7
:1004100050915D0120915401309155018091560118
:10042000909157010E94510000E010E0AA24BB24E3
:10043000A3940F2EF7E08F2E9924F02D0F2EF3E0CA
:100440006F2E7724F02D0F2EF6E04F2E5524F02D31
:100450000F2EF6E02F2EF0E03F2EF02D0E94C2016D
:10046000C82F882309F05DC00115110559F480914A
:100470005601909157018A259B25909357018093AF
:10048000560130C001301105A9F480915E019091B0
:100490005F01019690935F0180935E0180915E0100
:1004A00090915F018D3091052CF010925F011092B8
:1004B0005E0125C002301105A9F480915C01909184
:1004C0005D01019690935D0180935C0180915C01D8
:1004D00090915D018C33910594F010925D01109222
:1004E0005C010DC00330110551F4809154019091CD
:1004F00055018A259B259093550180935401609165
:100500005E0170915F0140915C0150915D0120910D
:1005100054013091550180915601909157010E94EC
:100520005100C13009F05FC00115110559F48091E7
:100530005601909157018A259B25909357018093EE
:10054000560132C001301105B1F480915E019091E5
:100550005F01019790935F0180935E0180915E013E
:1005600090915F0199233CF48CE090E090935F01BF
:1005700080935E0126C002301105B1F480915C01C8
:1005800090915D01019790935D0180935C01809152
:100590005C0190915D019923A4F4ABE3B0E0B093CA
:1005A0005D01A0935C010DC00330110551F48091F1
:1005B0005401909155018A259B2590935501809374
:1005C000540160915E0170915F0140915C01509116
:1005D0005D01209154013091550180915601909117
:1005E00057010E945100C23009F09AC0011511054F
:1005F000E9F58091560190915701009709F0B0C03C
:10060000C10160E070E00E94970C109264018CE0E0
:100610000E942D0B82E060E045EB50E00E940E0B43
:100620008FEF94E3ACE081509040A040E1F700C030
:1006300000008FEF94E3ACE081509040A040E1F7E0
:1006400000C000008FEF94E3ACE081509040A040E8
:10065000E1F700C000008FEF94E3ACE081509040E0
:10066000A040E1F700C00000E50189C0013011059C
:1006700009F47AC00230110509F47BC0609156017B
:1006800070915701C1010E94970C60915E017091B9
:100690005F0184E090E00E94970C60915C01709192
:1006A0005D0182E090E00E94970C6091540170918E
:1006B000550180E090E00E94970C109264018CE05C
:1006C0000E942D0B0E946A0A82E060E04FEB50E02E
:1006D0000E940E0B8FEF94E3ACE081509040A0405D
:1006E000E1F700C000008FEF94E3ACE08150904050
:1006F000A040E1F700C000008FEF94E3ACE0815030
:100700009040A040E1F700C000008FEF94E3ACE020
:1007100081509040A040E1F700C00000E50105C015
:100720000115110551F1C0E0D0E00130110539F09B
:100730000230110541F00330110541F009C0750187
:10074000CC24DD2405C07501630102C0750162017E
:100750008C2D6E2D0E945C0A209709F47FCE13C069
:10076000C0E0D0E08501E1CFC0E0D0E002E010E0E1
:10077000DCCFC0E0D0E08301D8CFC0E0D0E0EE24F1
:10078000FF246401D5CFDF91CF911F910F91FF908E
:10079000EF90DF90CF90BF90AF909F908F907F9021
:1007A0006F905F904F903F902F900895AF92BF92BF
:1007B000CF92DF92EF92FF920F931F93CF93DF932D
:1007C0008FE00E942D0B0E946A0A80E060E049ECF5
:1007D00050E00E940E0B80E061E044ED50E00E948A
:1007E0000E0B8BE060E04EED50E00E940E0B00E03F
:1007F00010E0EE24FF24CC24DD24C394AA24BB24DF
:100800006894A1F80E94C201882329F40F5F1F4F4A
:100810000330110544F4813019F4015010407AF08E
:10082000823011F403C08701E70101C0E601011520
:10083000110539F480E060E00E945C0A11C0850176
:10084000E7010130110529F48BE060E00E945C0AA9
:1008500007C00230110521F480E061E00E945C0ACB
:10086000209781F20115110521F482E08093640143
:1008700006C00230110519F483E0809364010E94E0
:100880006A0ADF91CF911F910F91FF90EF90DF9057
:10089000CF90BF90AF9008950F931F93CF93DF93A6
:1008A000EC0180E060E00E945C0A8A8190E086FDB5
:1008B0000DC08073907095958795959587959595C2
:1008C0008795959587950E94B60A0CC080719070A7
:1008D0009595879595958795959587959595879500
:1008E0000E94B60A8A8190E08F7090700E94B60ACA
:1008F0008AE30E94720A898190E0807790709595D2
:1009000087959595879595958795959587950E9457
:10091000B60A898190E08F7090700E94B60A8AE3CF
:100920000E94720A888190E08077907095958795F3
:100930009595879595958795959587950E94B60A83
:10094000888190E08F7090700E94B60A8A8186FF3D
:100950000BC085FF05C084EE90E00E94870A04C0AA
:100960008CEE90E00E94870A80E061E00E945C0AC1
:100970008C8190E08073907095958795959587957B
:1009800095958795959587950E94B60A8C8190E0FC
:100990008F7090700E94B60A8FE20E94720A8D8159
:1009A00090E0807190709595879595958795959530
:1009B0008795959587950E94B60A8D8190E08F70F6
:1009C00090700E94B60A8FE20E94720A8E81829510
:1009D0008F7090E00E94B60A8E8190E08F709070C8
:1009E0000E94B60A80E20E94720A8B818430B1F0C4
:1009F000853038F4823061F0833068F48130E1F47E
:100A000019C0863089F0863060F08730A9F40FC0B5
:100A100002E910E011C006E910E00EC00AE910E09A
:100A20000BC00EE910E008C002EA10E005C006EABB
:100A300010E002C00EE810E0C8010E94870ADF91B2
:100A4000CF911F910F9108950F931F93CF93DF9331
:100A5000EC018A8190E086FD0DC0807390709595C1
:100A600087959595879595958795959587950E94F6
:100A70001F0C0CC080719070959587959595879502
:100A800095958795959587950E941F0C8A8190E092
:100A90008F7090700E941F0C8AE30E94E40B898182
:100AA00090E0807790709595879595958795959529
:100AB0008795959587950E941F0C898190E08F708E
:100AC00090700E941F0C8AE30E94E40B888190E0E2
:100AD000807790709595879595958795959587954D
:100AE000959587950E941F0C888190E08F7090707B
:100AF0000E941F0C8A8186FF0BC085FF05C08DE216
:100B000091E00E94E80B04C081E391E00E94E80BB1
:100B10008AE00E94E40B8C8190E080739070959540
:100B200087959595879595958795959587950E9435
:100B30001F0C8C8190E08F7090700E941F0C8FE2D0
:100B40000E94E40B8D8190E080719070959587955F
:100B50009595879595958795959587950E941F0CF6
:100B60008D8190E08F7090700E941F0C8FE20E9428
:100B7000E40B8E8182958F7090E00E941F0C8E8115
:100B800090E08F7090700E941F0C80E20E94E40B36
:100B90008B818430B1F0853038F4823061F083305D
:100BA00068F48130E1F419C0863089F0863060F055
:100BB0008730A9F40FC00BEF10E011C002E011E084
:100BC0000EC00AE011E00BC004E111E008C00DE125
:100BD00011E005C004E211E002C004EF10E0C8011A
:100BE0000E94E80B8AE00E94E40BDF91CF911F91F5
:100BF0000F910895CF93DF93EC01FB01188281815F
:100C00002AE0622F0E943D0C8295807F892B898388
:100C100080810E943D0C392F306492819295990F0A
:100C2000907E932B8295807F892B8A8383818B830F
:100C300084810E943D0C8295807F892B8C838581E5
:100C40000E943D0C8295807F892B8D8386810E9436
:100C50003D0C8295807F892B8E83CE010E942405D6
:100C6000CE010E94A80BDF91CF9108953F924F9241
:100C70005F926F927F928F929F92AF92BF92CF922C
:100C8000DF92EF92FF920F931F93CF93DF93CDB735
:100C9000DEB72A970FB6F894DEBF0FBECDBF9A8796
:100CA0008987FC014281242F30E0C9018071907056
:100CB000959587959595879595958795959587951C
:100CC000880F982F990F990F890F4F70840F898380
:100CD0004181842F90E080779070959587959595C8
:100CE00087959595879595958795880F982F990F56
:100CF000990F890F4F70840F8A8320723070359559
:100D000027953595279535952795359527953595CB
:100D100027952B83838187708C832481822F90E099
:100D200080739070959587959595879595958795FE
:100D300095958795880F982F990F990F890F2F7088
:100D4000820F8D832581822F90E080719070959520
:100D50008795959587959595879595958795880F0E
:100D6000982F990F990F890F2F70820F8E8386818C
:100D7000982F92959F70990F292F220F220F920F73
:100D80008F70980F9F8381E088878FE00E942D0BE2
:100D90000E946A0ACE0101960E94A80010E0FF247A
:100DA0000F2EF5E0BF2EF02D0F2EFBE0AF2EF02D15
:100DB000EE24E3940F2EF9E09F2EF02D0F2EF3E09A
:100DC0008F2EF02D0F2EF6E07F2EF02D66246894E6
:100DD00063F80F2EF2E44F2EF1E05F2EF02D0F2E70
:100DE000FFE13F2EF02D0E94C201882309F049C087
:100DF000133011F1143028F4113081F01230A8F4BE
:100E000009C0153021F11530D8F0163039F11730FE
:100E100091F52BC088858E2588872DC089818F5FAD
:100E200089838D3040F1F98226C08A818F5F8A8361
:100E30008C3308F1FA821FC08B818E258B831BC0F7
:100E40008C818F5F8C838830B0F0EC8214C08D81F0
:100E50008F5F8D83803278F0ED820DC08E818F5F41
:100E60008E838D3040F0EE8206C08F818F5F8F833E
:100E7000843608F0FF82CE0101960E94A8000F2D53
:100E8000CCC0813009F04EC0133021F1143028F469
:100E9000113081F01230B0F409C0153039F115303D
:100EA000E8F0163051F11730B9F52FC088858E253E
:100EB000888732C08981815089838F3F69F58CE0B2
:100EC00089832AC08A8181508A838F3F29F58BE3E9
:100ED0008A8322C08B818E258B831EC08C8181509A
:100EE0008C838823C9F487E08C8316C08D81815060
:100EF0008D83882389F43D820FC08E8181508E833B
:100F0000882351F48CE08E8307C08F8181508F83BA
:100F10008F3F11F483E68F83CE0101960E94A800D3
:100F20000F2D7BC0823009F077C01123A9F5888589
:100F3000882309F087C0F09264018CE00E942D0B99
:100F400082E06F2D45E351E00E940E0B8FEF94E39A
:100F5000ACE081509040A040E1F700C000008FEF6E
:100F600094E3ACE081509040A040E1F700C0000065
:100F70008FEF94E3ACE081509040A040E1F700C0D7
:100F800000008FEF94E3ACE081509040A040E1F787
:100F900000C000000E2D53C0812F8150863018F400
:100FA0001F5F0F2D3AC0CE010996BE016F5F7F4FC4
:100FB0000E94FA05F09264018CE00E942D0B0E94C1
:100FC0006A0A82E06F2DA2010E940E0B8FEF94E35C
:100FD000ACE081509040A040E1F700C000008FEFEE
:100FE00094E3ACE081509040A040E1F700C00000E5
:100FF0008FEF94E3ACE081509040A040E1F700C057
:1010000000008FEF94E3ACE081509040A040E1F706
:1010100000C000000E2D01C00F2D1330C1F01430A0
:1010200028F4113089F0123008F509C01530A9F004
:10103000153080F01630A1F01730D1F414C0DF2C39
:10104000CF2C16C00F2D1E2DDF2CCB2C11C0DF2C6A
:10105000CA2C0EC0DE2CC92C0BC0DE2CCF2C08C035
:10106000DE2CC82C05C0DE2CC72C02C0DF2CC62C01
:101070008C2D6D2D0E945C0A002309F4B4CE2A96B3
:101080000FB6F894DEBF0FBECDBFDF91CF911F9199
:101090000F91FF90EF90DF90CF90BF90AF909F9017
:1010A0008F907F906F905F904F903F9008950E9437
:1010B00049000E94CD0B0E94D60B81E060ED0E949A
:1010C000BC090E94670B8CE00E942D0B0E946A0AEB
:1010D0001092640186E090E00E94910C9093570179
:1010E0008093560184E090E00E94910C282F392FC4
:1010F00030935F0120935E0182E090E00E94910CAA
:10110000282F392F30935D0120935C0180E090E01F
:101110000E94910C282F392F3093550120935401B0
:10112000C5E6D1E011E00F2EF5EBEF2EF0E0FF2E3B
:10113000F02D809164018130E1F0813030F0823017
:1011400009F466C08330A9F75FC0CE010E94750B19
:10115000CE010E944C04CE010E944801882311F068
:10116000109364010E94C201823019F70E94D603D5
:10117000E0CF7894AF9AC89BDCCF1092640185B31E
:1011800015BA0E946A0A83E060E0A7010E940E0B74
:101190008FEF94E3ACE081509040A040E1F700C0B5
:1011A00000008FEF94E3ACE081509040A040E1F765
:1011B00000C000008FEF94E3ACE081509040A0406D
:1011C000E1F700C000008FEF94E3ACE08150904065
:1011D000A040E1F700C000008FEF94E3ACE0815045
:1011E0009040A040E1F700C000008FEF94E3ACE036
:1011F00081509040A040E1F700C00000F8940E94A8
:1012000049000E946A0A95CFCE010E94360691CF0E
:101210000E94EB018ECF1F920F920FB60F921124F6
:101220002F933F934F935F936F937F938F939F93EE
:10123000AF93BF93EF93FF9380916401813009F0E6
:101240008AC080916201909163010196909363013D
:1012500080936201809162019091630121E0843F5B
:10126000920710F110926301109262018091600167
:10127000909161010196909361018093600180914A
:101280005801813049F40E946A0A83E060E04BE42F
:1012900051E00E940E0B02C00E946A0A9091580110
:1012A00081E089278093580120916001309161018C
:1012B0008091590190915A012817390708F44BC0C1
:1012C000109261011092600110926301109262010C
:1012D0001092640185B315BA0E946A0A83E060E047
:1012E00045EB50E00E940E0B8FEF94E3ACE0815091
:1012F0009040A040E1F700C000008FEF94E3ACE025
:1013000081509040A040E1F700C000008FEF94E3CF
:10131000ACE081509040A040E1F700C000008FEFAA
:1013200094E3ACE081509040A040E1F700C00000A1
:101330008FEF94E3ACE081509040A040E1F700C013
:1013400000008FEF94E3ACE081509040A040E1F7C3
:1013500000C00000F894FF91EF91BF91AF919F9171
:101360008F917F916F915F914F913F912F910F904E
:101370000FBE0F901F901895882331F0813031F403
:1013800011B888E480B9089584E486BF089584EA9A
:1013900086BF06B607FEFDCF089584E986BF06B670
:1013A00004FCFDCF089583B984E886BF06B607FE26
:1013B000FDCF0895813019F484EC86BF02C084E823
:1013C00086BF06B607FEFDCF83B10895C49A00C05C
:1013D000C4980895CF93662311F0C69A01C0C698A9
:1013E000C598BB9ABA9AB99AB89AC098C198C29847
:1013F000C39888230CF4C09AC82F86FDC19AC5FDF6
:10140000C29AC4FDC39A0E94E609C098C198C298C6
:10141000C398C3FDC09AC2FDC19AC1FDC29AC0FD66
:10142000C39A0E94E609C39AC29AC19AC09ACF9100
:101430000895882311F0C69A01C0C698C59ABB9832
:10144000BA98B998B898C49A00C0B39902C080E01D
:1014500001C080E1B2998062B1998064B0998068DE
:10146000C49800C0C49A00C0B3998160B2998260E8
:10147000B1998460B0998860C498089580E00E9412
:10148000190A8823DCF300C080E00E94190A08953D
:10149000CF93C82F0E943E0A8C2F60E00E94EA0979
:1014A000CF910895CF93C82F0E943E0A8C2F61E000
:1014B0000E94EA09CF910895662321F480580E9482
:1014C000480A089580540E94480A08950E943E0ADE
:1014D00090E0089581E00E94480A089582E00E9409
:1014E000480A0895CF93C82F0E943E0ACA3049F493
:1014F000803410F480E401C080E080580E94480AE3
:1015000004C08C2F61E00E94EA09CF910895CF9327
:10151000DF93EC018881882331F021960E94720AC2
:1015200089918823D9F7DF91CF910895BC018A3042
:101530009105CCF082E090E024E630E0621773077A
:10154000A4F0A901440F551F220F331F220F331F90
:10155000220F331F240F351F01968031910571F73B
:1015600080E090E0089581E090E00895EF92FF928E
:101570000F931F93CF93DF9300D000D00F92CDB77E
:10158000DEB7082F192F0E94960AFE01319625E03A
:10159000DF011D922A95E9F79C01215030408AF025
:1015A0007F01E80FF91F2AE030E0802F912FB90169
:1015B0000E94490C805D8293062F172FEE15FF05C0
:1015C000A1F7CE0101960E94870A0F900F900F900D
:1015D0000F900F90DF91CF911F910F91FF90EF909F
:1015E0000895CF93DF93EC01FC018491882341F0AF
:1015F00021960E94720AFE01219684918823C9F7E0
:10160000DF91CF910895CF93DF93EA010E945C0AA6
:10161000CE010E94B60ADF91CF910895CF93DF9358
:10162000EA010E945C0ACE010E94870ADF91CF91F5
:101630000895CF93C42F0E945C0A8C2F0E94720AD7
:10164000CF910895CF93DF93EA010E945C0ACE0107
:101650000E94F10ADF91CF9108951F93CF93DF93FA
:10166000182FBE9ABD9ABC9ABB9ABA9AB99AB89AE0
:1016700080EA9FE00197F1F7C29AC39A0E94E609B7
:1016800080EE94E00197F1F70E94E609C0E1D0E016
:10169000CE010197F1F70E94E609CE010197F1F71B
:1016A000C3980E94E6092197F1F788E20E94480A50
:1016B00088E00E94480A0E946A0A86E00E94480A5E
:1016C000812F0E94480ADF91CF911F9108950E94B7
:1016D000C70980ED0E94D30987E00E94D30980E00A
:1016E0000E94D3090E94CD090895CF93DF93EC01A6
:1016F0000E94C70980ED0E94D30980E00E94D309AF
:101700000E94CD090E94C70981ED0E94D30981E0A2
:101710000E94DA09888381E00E94DA09898381E0E6
:101720000E94DA098A8381E00E94DA098B8381E0D2
:101730000E94DA098C8381E00E94DA098D8380E0BF
:101740000E94DA098E830E94CD09DF91CF9108951E
:10175000CF93DF93EC010E94C70980ED0E94D3096B
:1017600080E00E94D30988810E94D30989810E9468
:10177000D3098A810E94D3098B810E94D3098C816D
:101780000E94D3098D810E94D3098E810E94D309C2
:101790000E94CD09DF91CF91089583B78B6083BFFD
:1017A00089B7826089BF89EF8CBF08958AB188614B
:1017B0008AB980B5866880BD87E689B910BC08956E
:1017C0005F9BFECF8CB108955D9BFECF8CB90895D1
:1017D000CF93DF93EC018881882331F021960E941A
:1017E000E40B89918823D9F7DF91CF910895CF93A6
:1017F000DF93EC01FE012491222351F02196FC019C
:1018000084910E94E40BCE01FE0124912223B1F7C2
:10181000DF91CF9108958F708A3010F0895C01C0FC
:10182000805D0E94E40B0895CF93C82F82958F703E
:101830000E940B0C8C2F0E940B0CCF910895CF931C
:10184000DF93CDB7DEB761970FB6F894DEBF0FBE5A
:10185000CDBFBE016F5F7F4F4AE050E00E94700C29
:10186000CE0101960E94E80B61960FB6F894DEBF98
:101870000FBECDBFDF91CF910895991B79E004C0D1
:10188000991F961708F0961B881F7A95C9F78095BF
:10189000089597FB092E07260AD077FD04D00CD0B7
:1018A00006D000201AF4709561957F4F0895F6F7E1
:1018B000909581959F4F0895AA1BBB1B51E107C0CE
:1018C000AA1FBB1FA617B70710F0A61BB70B881FD0
:1018D000991F5A95A9F780959095BC01CD0108955F
:1018E000FB019F01E8944230C4F04532B4F44A3021
:1018F00029F497FB1EF4909581959F4F642F7727CD
:101900000E945C0C805D8A330CF0895D8193CB0171
:101910000097A1F716F45DE251931082C9010C946F
:101920009C0CA8E1B0E042E050E00C94AE0C0E94A8
:10193000BC0C272F0C94BD0CDC01FC01672F7191AE
:101940007723E1F7329704C07C916D9370836291A5
:10195000AE17BF07C8F30895DC01CB01FC01E19984
:10196000FECF06C0FFBBEEBBE09A31960DB20D92E2
:1019700041505040B8F70895262FE199FECF9FBB04
:101980008EBB2DBB0FB6F894E29AE19A0FBE01967A
:061990000895F894FFCF5A
:10199600416C61726D203C004F464620002020209D
:1019A6002020202020202020202020202020200051
:1019B6004F4E2000414D202000504D2020005375F1
:1019C6006E004D6F6E00547565005765640054686F
:1019D600750046726900536174003C4E4F20003C0E
:1019E6005365742000416C61726D204F666600413C
:1019F6006C61726D20536574003C53657420416CB4
:101A060061726D003C5365742054696D65003C45F8
:101A16007869740020504D202020200020414D2060
:101A26002020200053756E646179004D6F6E6461ED
:101A3600790054756573646179005765646E6573E2
:101A460064617900546875727364617900467269DD
:101A56006461790053617475726461790020504D38
:101A66000020414D0054696D65204E6F742053650A
:101A7600740054696D65205365740057414B4520C9
:0C1A860055502100010001000168010022
:00000001FF
